:020000040800F2
:1000000000500020350E00086D0D0008730D00082B
:10001000790D00087F0D0008850D00080000000024
:100020000000000000000000000000008B0D000830
:10003000970D000800000000A30D0008AF0D000898
:100040007D0E00087D0E00087D0E00087D0E000864
:100050007D0E00087D0E00087D0E00087D0E000854
:100060007D0E00087D0E00087D0E00087D0E000844
:100070007D0E00087D0E00087D0E00087D0E000834
:100080007D0E00087D0E00087D0E00087D0E000824
:100090007D0E00087D0E00087D0E00087D0E000814
:1000A0007D0E00087D0E00087D0E00087D0E000804
:1000B0007D0E00087D0E00087D0E00087D0E0008F4
:1000C0007D0E00087D0E00087D0E00087D0E0008E4
:1000D0007D0E00087D0E00087D0E00087D0E0008D4
:1000E0007D0E00087D0E00087D0E00080000000057
:1000F0000000000000000000000000000000000000
:0C01000000000000000000005FF808F1A3
:10010C0010B5054C237833B9044B13B10448AFF345
:10011C0000800123237010BD6C0000200000000043
:10012C000439000808B5034B1BB103490348AFF36E
:10013C00008008BD00000000700000200439000899
:10014C0080B500AF00224FF48061024801F080F9C5
:10015C0000BF80BD0008014080B500AF01224FF404
:10016C008061024801F074F900BF80BD00080140B5
:10017C0080B500AF00220421064801F069F9052082
:10018C0000F0DAFE01220421024801F061F900BFFF
:10019C0080BD00BF0008014080B582B000AF0346AF
:1001AC00FB7100220221074801F052F9F91D4FF0B2
:1001BC00FF330122044802F003FD00BF0837BD469F
:1001CC0080BD00BF000801409C00002080B582B0BB
:1001DC0000AF7860396001220221074801F038F93C
:1001EC003B689AB24FF0FF337968044802F0E8FCA0
:1001FC0000BF0837BD4680BD000801409C000020B0
:10020C0080B584B000AF78607B685A1C7A601B782C
:10021C00FB7334E07B685A1C7A601B78FB72FB7AA8
:10022C001846FFF7B9FF7B685A1C7A601B78BB72C3
:10023C00BB7A9BB203F08003BB81BB7A03F07F03D4
:10024C00BB72BB7A002B08D0BB7A19467868FFF7D3
:10025C00BDFFBB7A7A6813447B60BB89002B0ED040
:10026C007B685A1C7A601B78BB81BB89FF2B02D13F
:10027C004FF4FA73BB81BB89184600F05DFEFB7B23
:10028C005A1EFA73002BC5D100BF00BF1037BD46F4
:10029C0080BD90B585B000AF0446084611461A469D
:1002AC002346FB710346BB710B467B7113463B71B6
:1002BC002A20FFF771FF00233B73FB797B7300232C
:1002CC00BB737B79FB7307F10C0304211846FFF712
:1002DC007DFF2B20FFF760FFBB797B733B79FB73B2
:1002EC0007F10C0304211846FFF770FF2C20FFF7D1
:1002FC0053FF00BF1437BD4690BD000080B500AF62
:10030C00FFF71EFFFFF734FF0648FFF779FF06489B
:10031C00FFF776FF0548FFF773FFFFF71DFF00BFE0
:10032C0080BD00BFBC390008F8390008083A000845
:10033C0082B090B589B000AF7B630346FB800B465F
:10034C00BB801346FB70FB88D8B2BB88D9B2FB8844
:10035C00DAB297F834301344DBB2013BDCB2BB8821
:10036C00DAB297F835301344DBB2013BDBB22246EC
:10037C00FFF78FFF0023FB6143E0BA6BFB78203B58
:10038C0097F8351001FB03F31946FB690B445B002E
:10039C0013441B887B610023BB6129E07A69BB692C
:1003AC0002FA03F303F40043002B0ED0BB8F1B0A9D
:1003BC009BB2DBB23B74BB8FDBB27B7407F11003D7
:1003CC0002211846FFF702FF0FE0B7F840301B0A76
:1003DC009BB2DBB23B73B7F84030DBB27B7307F1F7
:1003EC000C0302211846FFF7F1FEBB690133BB6118
:1003FC0097F834301A46BB699342CFD3FB6901336B
:10040C00FB6197F835301A46FB699342B5D300BFB0
:10041C0000BF2437BD46BDE8904002B0704782B0A3
:10042C0080B586B004AF3A607B610346FB800B4617
:10043C00BB80FFF785FE2DE0FB883A7D13447F2BB4
:10044C0013DD0023FB807B7D9AB2BB881344BB80F9
:10045C00BB887A7D13449F2B21DC3B681B78202BB7
:10046C0003D13B6801333B6014E03B681A78B988D0
:10047C00F8883B8C0293BB8B0193BB6900937B691F
:10048C00FFF756FF3B7D9AB2FB881344FB803B6819
:10049C0001333B603B681B78002BCDD100E000BFE3
:1004AC00FFF75AFE00BF0837BD46BDE8804002B0DA
:1004BC007047000090B585B000AF04460846114661
:1004CC001A462346FB800346BB800B467B801346B3
:1004DC003B80FB887F2B57D8BB889F2B54D8FA883E
:1004EC007B881344802B03DDFB88C3F180037B8066
:1004FC00BA883B881344A02B03DDBB88C3F1A0034F
:10050C003B80FFF71DFEFB88D8B2BB88D9B2FB88B5
:10051C00DAB27B88DBB21344DBB2013BDCB2BB88C2
:10052C00DAB23B88DBB21344DBB2013BDBB22246CE
:10053C00FFF7AFFE3B8C1B0A9BB2DBB23B733B8CD1
:10054C00DBB27B7301220221114800F081FF3B8852
:10055C00BB8013E07B88FB800AE007F10C014FF0B5
:10056C00FF3302220B4802F02BFBFB88013BFB8084
:10057C00FB88002BF1D1BB88013BBB80BB88002BD7
:10058C00E8D1FFF7E9FD00E000BF1437BD4690BD90
:10059C00000801409C00002080B584B002AF0346E7
:1005AC00FB80FB880093A023802200210020FFF712
:1005BC0081FF00BF0837BD4680BD000080B58AB002
:1005CC0004AF00F057FC00F011FA00F0E5FA00F06F
:1005DC00ABFA00F05FFAFFF791FE0020FFF7DCFFAB
:1005EC00B04B002202924FF6FF7201925A680092B1
:1005FC001B68AD4A0F211420FFF711FF00233B7538
:10060C0000233B7407F1080300221946A74801F0A8
:10061C00CFFD3B7A1A467B7A1946BB7A07F1140058
:10062C0000930B46A24902F061FDA24B07F11401A5
:10063C00002202924FF4784201925A6800921B6891
:10064C000A4628211420FFF7EAFE3B1D002219461A
:10065C00964801F03BFFBB791A4607F10C0396490B
:10066C00184602F043FDFB7903F5FA6207F110031B
:10067C009149184602F03AFD8E4B07F10C0100220D
:10068C00029240F2FF7201925A6800921B680A466D
:10069C004B210A20FFF7C3FE864B07F11001002205
:1006AC00029240F2FF7201925A6800921B680A464D
:1006BC004B215020FFF7B3FE7B79013B112B00F24D
:1006CC00DB8001A252F823F01D0700083B0700084D
:1006DC00590700087707000895070008B3070008BA
:1006EC00D1070008EF0700080D080008850800086E
:1006FC00850800088508000885080008850800089A
:10070C00850800082B08000849080008670800083D
:10071C00684B0022029240F2FF7201925A680092DA
:10072C001B68664A4B212820FFF779FEA5E0614B38
:10073C000022029240F2FF7201925A6800921B68EA
:10074C005F4A4B212820FFF76AFE96E0594B0022A6
:10075C00029240F2FF7201925A6800921B68594A49
:10076C004B212820FFF75BFE87E0524B00220292C0
:10077C0040F2FF7201925A6800921B68524A4B2158
:10078C002820FFF74CFE78E04A4B0022029240F200
:10079C00FF7201925A6800921B684C4A4B21282028
:1007AC00FFF73DFE69E0434B0022029240F2FF72DC
:1007BC0001925A6800921B68454A4B212820FFF78A
:1007CC002EFE5AE03B4B0022029240F2FF72019245
:1007DC005A6800921B683F4A4B212820FFF71FFEE6
:1007EC004BE0344B0022029240F2FF7201925A68A5
:1007FC0000921B68384A4B212820FFF710FE3CE082
:10080C002C4B0022029240F2FF7201925A68009225
:10081C001B68324A4B212820FFF701FE2DE0254BA7
:10082C000022029240F2FF7201925A6800921B68F9
:10083C002B4A4B212820FFF7F2FD1EE01D4B002216
:10084C00029240F2FF7201925A6800921B68254A8C
:10085C004B212820FFF7E3FD0FE0164B00220292FC
:10086C0040F2FF7201925A6800921B681E4A4B219B
:10087C002820FFF7D4FD00E000BF3B79062B00F2E7
:10088C009E8001A252F823F0AD090008F908000877
:10089C0017090008350900085309000871090008F8
:1008AC008F090008000000201C3900088800002077
:1008BC002C390008080000203C3900084439000895
:1008CC00483900084C3900085039000854390008E0
:1008DC00583900085C390008603900086439000890
:1008EC006C3900087039000874390008374B002245
:1008FC0002924FF6E07201925A6800921B68344AD9
:10090C006E211920FFF78BFD5AE0304B002202922A
:10091C004FF6E07201925A6800921B682D4A6E21C4
:10092C001920FFF77CFD4BE0284B002202924FF67A
:10093C00E07201925A6800921B68274A6E211920B6
:10094C00FFF76DFD3CE0214B002202924FF6E07266
:10095C0001925A6800921B68204A6E211920FFF7F9
:10096C005EFD2DE0194B002202924FF6E0720192CF
:10097C005A6800921B681A4A6E211920FFF74FFD26
:10098C001EE0124B002202924FF6E07201925A685E
:10099C0000921B68134A6E211920FFF740FD0FE0EF
:1009AC000A4B002202924FF6E07201925A680092B2
:1009BC001B680D4A6E211920FFF731FD00E000BFC6
:1009CC004FF4FA7000F0B8FA1CE600BF08000020E3
:1009DC0078390008803900088839000894390008F3
:1009EC00A0390008A8390008B439000880B594B0C3
:1009FC0000AF07F1280328220021184602F096FBCD
:100A0C0007F1140300221A605A609A60DA601A61C6
:100A1C003B1D00221A605A609A60DA600A23BB629E
:100A2C000123BB631023FB6301233B6400237B6422
:100A3C0007F12803184600F02FFD0346002B01D0C8
:100A4C0000F0F4F80F237B610023BB610023FB61F2
:100A5C0000233B6200237B6207F11403002118463C
:100A6C0000F09CFF0346002B01D000F0DFF80123BF
:100A7C007B604FF40073BB603B1D184601F008F916
:100A8C000346002B01D000F0D1F800BF5037BD4613
:100A9C0080BD000080B582B000AF3B1D00210A462E
:100AAC001A800A469A7000233B601D4B1D4A1A603F
:100ABC001B4B4FF0FF325A60194B4FF480729A6007
:100ACC00174801F051FA0346002B01D000F0AEF8A4
:100ADC0007233B7151237B714023BB713B1D0122CA
:100AEC0019460F4801F0CCFA0346002B01D000F058
:100AFC009DF802233B7003237B701923BB702423C6
:100B0C00FB703B4601221946054801F029FC0346BF
:100B1C00002B01D000F08AF800BF0837BD4680BD1D
:100B2C00880000200028004080B500AF184B194AFF
:100B3C001A60174B4FF482725A60154B4FF40042F7
:100B4C009A60134B0022DA60114B00221A61104B91
:100B5C0000225A610E4B4FF400729A610C4B20220A
:100B6C00DA610B4B00221A62094B00225A62084BC5
:100B7C0000229A62064B0A22DA62054801F09CFFB9
:100B8C000346002B01D000F051F800BF80BD00BF20
:100B9C009C0000200030014080B588B000AF07F108
:100BAC00100300221A605A609A60DA601D4B9B6930
:100BBC001C4A43F0100393611A4B9B6903F010031A
:100BCC00FB60FB68174B9B69164A43F0200393614B
:100BDC00144B9B6903F02003BB60BB68114B9B69F2
:100BEC00104A43F0040393610E4B9B6903F004031A
:100BFC007B607B68002206210B4800F029FC062351
:100C0C003B6101237B610023BB610223FB6107F184
:100C1C0010031946044800F097FA00BF2037BD4670
:100C2C0080BD00BF001002400008014080B400AF3E
:100C3C0072B600BFFEE7000080B485B000AF154B64
:100C4C009B69144A43F001039361124B9B6903F0B7
:100C5C000103BB60BB680F4BDB690E4A43F080534A
:100C6C00D3610C4BDB6903F080537B607B680A4BD0
:100C7C005B68FB60FB6823F0E063FB60FB6843F0A0
:100C8C000073FB60044AFB68536000BF1437BD4619
:100C9C0080BC7047001002400000014080B584B059
:100CAC0000AF78607B681B680B4A934210D100F050
:100CBC00E7FB0A4BDB69094A43F00063D361074B3E
:100CCC00DB6903F00063FB60FB68054B01221A60D3
:100CDC0000BF1037BD4680BD002800400010024008
:100CEC003C04424280B588B000AF786007F1100335
:100CFC0000221A605A609A60DA607B681B68154A99
:100D0C00934223D1144B9B69134A43F48053936150
:100D1C00114B9B6903F48053FB60FB680E4B9B6982
:100D2C000D4A43F0040393610B4B9B6903F00403DE
:100D3C00BB60BB68A0233B6102237B610323FB6187
:100D4C0007F110031946054800F0FEF900BF2037E3
:100D5C00BD4680BD0030014000100240000801403B
:100D6C0080B400AFFEE780B400AFFEE780B400AF04
:100D7C00FEE780B400AFFEE780B400AFFEE780B4BE
:100D8C0000AF00BFBD4680BC704780B400AF00BF51
:100D9C00BD4680BC704780B400AF00BFBD4680BC70
:100DAC00704780B500AF00F0ABF800BF80BD00000D
:100DBC0080B586B000AF7860144A154BD31A7B61AE
:100DCC007B693B61134B1B68002B02D1114B124A00
:100DDC001A60104B1A687B6813443A699A4207D21E
:100DEC0002F0BCF903460C221A604FF0FF3309E005
:100DFC00084B1B68FB60074B1A687B681344054A59
:100E0C001360FB6818461837BD4680BD00500020A3
:100E1C0000040000F40000204802002080B400AF61
:100E2C0000BFBD4680BC7047FFF7F8FF0B480C496C
:100E3C000C4A002302E0D458C4500433C4188C422A
:100E4C00F9D3094A094C002301E013600432A24291
:100E5C00FBD302F089F9FFF7B1FB704700000020CB
:100E6C006C000020784F00086C0000204402002029
:100E7C00FEE7000080B500AF084B1B68074A43F043
:100E8C0010031360032000F02BF90F2000F008F87A
:100E9C00FFF7D2FE0023184680BD00BF00200240A1
:100EAC0080B582B000AF7860124B1A68124B1B7879
:100EBC0019464FF47A73B3FBF1F3B2FBF3F3184614
:100ECC0000F035F90346002B01D001230EE07B68BE
:100EDC000F2B0AD8002279684FF0FF3000F00BF985
:100EEC00064A7B681360002300E00123184608378C
:100EFC00BD4680BD1000002018000020140000200A
:100F0C0080B400AF054B1B781A46054B1B68134485
:100F1C00034A136000BFBD4680BC70471800002018
:100F2C00F800002080B400AF024B1B681846BD4689
:100F3C0080BC7047F800002080B584B000AF7860AA
:100F4C00FFF7F0FFB8607B68FB60FB68B3F1FF3F15
:100F5C0005D00A4B1B781A46FB681344FB6000BF94
:100F6C00FFF7E0FF0246BB68D31AFA689A42F7D83B
:100F7C0000BF00BF1037BD4680BD00BF1800002069
:100F8C0080B485B000AF78607B6803F00703FB602A
:100F9C000C4BDB68BB60BA684FF6FF031340BB60B9
:100FAC00FB681A02BB68134343F0BF6343F400337E
:100FBC00BB60044ABB68D36000BF1437BD4680BC1D
:100FCC00704700BF00ED00E080B400AF044BDB685D
:100FDC001B0A03F007031846BD4680BC704700BFD0
:100FEC0000ED00E080B483B000AF03463960FB71C4
:100FFC0097F90730002B0ADB3B68DAB20C4997F9FA
:10100C0007301201D2B20B4483F800230AE03B688C
:10101C00DAB20849FB7903F00F03043B1201D2B298
:10102C000B441A7600BF0C37BD4680BC704700BF1E
:10103C0000E100E000ED00E080B489B000AFF860A2
:10104C00B9607A60FB6803F00703FB61FB69C3F1CD
:10105C000703042B28BF0423BB61FB690433062B55
:10106C0002D9FB69033B00E000237B614FF0FF32A8
:10107C00BB6902FA03F3DA43BB681A407B699A40F6
:10108C004FF0FF317B6901FA03F3D9437B680B40C6
:10109C00134318462437BD4680BC704780B582B0D8
:1010AC0000AF78607B68013BB3F1807F01D30123F3
:1010BC000FE00A4A7B68013B53600F214FF0FF3071
:1010CC00FFF790FF054B00229A60044B07221A6031
:1010DC00002318460837BD4680BD00BF10E000E075
:1010EC0080B582B000AF78607868FFF749FF00BF29
:1010FC000837BD4680BD80B586B000AF0346B960E9
:10110C007A60FB7300237B61FFF75EFF78617A687E
:10111C00B9687869FFF790FF024697F90F301146CE
:10112C001846FFF75FFF00BF1837BD4680BD80B57E
:10113C0082B000AF78607868FFF7B0FF03461846BE
:10114C000837BD4680BD000080B48BB000AF78601E
:10115C00396000237B6200233B6269E101227B6AD8
:10116C0002FA03F3FB613B681B68FA691340BB612D
:10117C00BA69FB699A4240F058813B685B689A4AAD
:10118C0093425ED0984A934275D8984A934258D06D
:10119C00964A93426FD8964A934252D0944A9342BD
:1011AC0069D8944A93424CD0924A934263D8924A5B
:1011BC00934246D0904A93425DD8122B2AD8122BD8
:1011CC0059D801A252F823F04F1200082912000836
:1011DC003B1200087D1200088312000883120008DD
:1011EC00831200088312000883120008831200087F
:1011FC00831200088312000883120008831200086F
:10120C0083120008831200088312000831120008B0
:10121C0045120008794A934213D02CE03B68DB68F6
:10122C003B6229E03B68DB6804333B6224E03B68AB
:10123C00DB6808333B621FE03B68DB680C333B62C6
:10124C001AE03B689B68002B02D104233B6213E03D
:10125C003B689B68012B05D108233B627B68FA69CC
:10126C001A6109E008233B627B68FA695A6103E062
:10127C0000233B6200E000BFBB69FF2B01D87B68F9
:10128C0001E07B6804337B61BB69FF2B02D87B6A6E
:10129C009B0002E07B6A083B9B003B617B691A6800
:1012AC000F213B6901FA03F3DB431A40396A3B69AE
:1012BC0001FA03F31A437B691A603B685B6803F01D
:1012CC008053002B00F0B1804D4B9B694C4A43F08E
:1012DC00010393614A4B9B6903F00103BB60BB683C
:1012EC00484A7B6A9B08023352F82330FB607B6AC6
:1012FC0003F003039B000F2202FA03F3DB43FA68AB
:10130C001340FB607B68404A934213D07B683F4A92
:10131C0093420DD07B683E4A934207D07B683D4A8E
:10132C00934201D1032306E0042304E0022302E0EC
:10133C00012300E000237A6A02F00302920093403A
:10134C00FA681343FB602F497B6A9B080233FA68E7
:10135C0041F823203B685B6803F48013002B06D014
:10136C002D4B9A682C49BB6913438B6006E02A4BC2
:10137C009A68BB69DB43284913408B603B685B6808
:10138C0003F40013002B06D0234BDA682249BB6907
:10139C001343CB6006E0204BDA68BB69DB431E4984
:1013AC001340CB603B685B6803F40033002B06D022
:1013BC00194B5A681849BB6913434B6006E0164B2E
:1013CC005A68BB69DB43144913404B603B685B684C
:1013DC0003F48033002B21D00F4B1A680E49BB69E4
:1013EC0013430B6021E000BF0000321000003110ED
:1013FC00000022100000211000001210000011103B
:10140C00001002400000014000080140000C0140A7
:10141C000010014000140140000401400B4B1A68FD
:10142C00BB69DB43094913400B607B6A01337B6268
:10143C003B681A687B6A22FA03F3002B7FF48EAEAA
:10144C0000BF00BF2C37BD4680BC70470004014074
:10145C0080B483B000AF78600B467B8013467B7002
:10146C007B78002B03D07A887B681A6103E07B8839
:10147C001A047B681A6100BF0C37BD4680BC7047EC
:10148C0080B400AF034B01221A6000BFBD4680BC84
:10149C00704700BF20000E4280B586B000AF786068
:1014AC007B68002B01D1012372E27B681B6803F07F
:1014BC000103002B00F08780924B5B6803F00C0358
:1014CC00042B0CD08F4B5B6803F00C03082B12D150
:1014DC008C4B5B6803F48033B3F5803F0BD1894BA5
:1014EC001B6803F40033002B6CD07B685B68002B0B
:1014FC0068D101234CE27B685B68B3F5803F06D171
:10150C00804B1B687F4A43F4803313602EE07B686A
:10151C005B68002B0CD17B4B1B687A4A23F480331D
:10152C001360784B1B68774A23F4802313601DE00B
:10153C007B685B68B3F5A02F0CD1724B1B68714AAA
:10154C0043F4802313606F4B1B686E4A43F4803363
:10155C0013600BE06B4B1B686A4A23F480331360F7
:10156C00684B1B68674A23F4802313607B685B68B5
:10157C00002B13D0FFF7D6FC386108E0FFF7D2FC44
:10158C0002463B69D31A642B01D9032300E25D4B5D
:10159C001B6803F40033002BF0D014E0FFF7C2FCFF
:1015AC00386108E0FFF7BEFC02463B69D31A642B96
:1015BC0001D90323ECE1534B1B6803F40033002BDC
:1015CC00F0D100E000BF7B681B6803F00203002B26
:1015DC0063D04C4B5B6803F00C03002B0BD0494BD6
:1015EC005B6803F00C03082B1CD1464B5B6803F4BF
:1015FC008033002B16D1434B1B6803F00203002BE6
:10160C0005D07B681B69012B01D00123C0E13D4B48
:10161C001B6823F0F8027B685B69DB0039491343D4
:10162C000B603AE07B681B69002B20D0364B012203
:10163C001A60FFF777FC386108E0FFF773FC02468D
:10164C003B69D31A022B01D90323A1E12D4B1B6853
:10165C0003F00203002BF0D02A4B1B6823F0F80296
:10166C007B685B69DB00274913430B6015E0264B55
:10167C0000221A60FFF756FC386108E0FFF752FCB5
:10168C0002463B69D31A022B01D9032380E11D4B7F
:10169C001B6803F00203002BF0D17B681B6803F07E
:1016AC000803002B3AD07B689B69002B19D0174B91
:1016BC0001221A60FFF736FC386108E0FFF732FCB4
:1016CC0002463B69D31A022B01D9032360E10D4B6F
:1016DC005B6A03F00203002BF0D0012000F0BAFA91
:1016EC001CE00A4B00221A60FFF71CFC38610FE06B
:1016FC00FFF718FC02463B69D31A022B08D90323C7
:10170C0046E100BF00100240000042428004424209
:10171C00924B5B6A03F00203002BE9D17B681B68D8
:10172C0003F00403002B00F0A6800023FB758B4B09
:10173C00DB6903F08053002B0DD1884BDB69874AA2
:10174C0043F08053D361854BDB6903F08053BB605E
:10175C00BB680123FB75824B1B6803F48073002B61
:10176C0018D17F4B1B687E4A43F480731360FFF7DC
:10177C00D9FB386108E0FFF7D5FB02463B69D31A69
:10178C00642B01D9032303E1754B1B6803F48073AD
:10179C00002BF0D07B68DB68012B06D16F4B1B6AEA
:1017AC006E4A43F0010313622DE07B68DB68002B6B
:1017BC000CD16A4B1B6A694A23F001031362674B15
:1017CC001B6A664A23F0040313621CE07B68DB6827
:1017DC00052B0CD1614B1B6A604A43F00403136266
:1017EC005E4B1B6A5D4A43F0010313620BE05B4BDB
:1017FC001B6A5A4A23F001031362584B1B6A574A5F
:10180C0023F0040313627B68DB68002B15D0FFF711
:10181C0089FB38610AE0FFF785FB02463B69D31A66
:10182C0041F28832934201D90323B1E04B4B1B6A3E
:10183C0003F00203002BEED014E0FFF773FB3861CA
:10184C000AE0FFF76FFB02463B69D31A41F288327C
:10185C00934201D903239BE0404B1B6A03F0020324
:10186C00002BEED1FB7D012B05D13C4BDB693B4AB8
:10187C0023F08053D3617B68DB69002B00F08780F9
:10188C00364B5B6803F00C03082B61D07B68DB697B
:10189C00022B46D1334B00221A60FFF743FB386111
:1018AC0008E0FFF73FFB02463B69D31A022B01D934
:1018BC0003236DE0294B1B6803F00073002BF0D160
:1018CC007B681B6AB3F5803F08D1244B5B6823F41B
:1018DC0000327B689B68214913434B601F4B5B684C
:1018EC0023F474127B68196A7B685B6A0B431B498F
:1018FC0013434B601B4B01221A60FFF713FB38613B
:10190C0008E0FFF70FFB02463B69D31A022B01D903
:10191C0003233DE0114B1B6803F00073002BF0D048
:10192C0035E0104B00221A60FFF7FCFA386108E032
:10193C00FFF7F8FA02463B69D31A022B01D90323AD
:10194C0026E0064B1B6803F00073002BF0D11EE061
:10195C007B68DB69012B07D1012319E000100240E1
:10196C0000700040600042420B4B5B68FB60FB6800
:10197C0003F480327B681B6A9A4206D1FB6803F43D
:10198C0070127B685B6A9A4201D0012300E000234D
:10199C0018461837BD4680BD0010024080B584B093
:1019AC0000AF786039607B68002B01D10123D0E057
:1019BC006A4B1B6803F007033A689A4210D9674BCD
:1019CC001B6823F0070265493B6813430B60634BAC
:1019DC001B6803F007033A689A4201D00123B8E070
:1019EC007B681B6803F00203002B20D07B681B680C
:1019FC0003F00403002B05D0594B5B68584A43F4A1
:101A0C00E06353607B681B6803F00803002B05D070
:101A1C00534B5B68524A43F460535360504B5B68C2
:101A2C0023F0F0027B689B684D4913434B607B6845
:101A3C001B6803F00103002B40D07B685B68012B13
:101A4C0007D1474B1B6803F40033002B15D101233E
:101A5C007FE07B685B68022B07D1414B1B6803F06E
:101A6C000073002B09D1012373E03D4B1B6803F07D
:101A7C000203002B01D101236BE0394B5B6823F08F
:101A8C0003027B685B68364913434B60FFF74AFAE5
:101A9C00F8600AE0FFF746FA0246FB68D31A41F2F7
:101AAC008832934201D9032353E02D4B5B6803F03A
:101ABC000C027B685B689B009A42EBD1274B1B683E
:101ACC0003F007033A689A4210D2244B1B6823F0A8
:101ADC00070222493B6813430B60204B1B6803F041
:101AEC0007033A689A4201D0012332E07B681B68F5
:101AFC0003F00403002B08D0194B5B6823F4E0625D
:101B0C007B68DB68164913434B607B681B6803F0EA
:101B1C000803002B09D0124B5B6823F460527B68DE
:101B2C001B69DB000E4913434B6000F021F80246A1
:101B3C000B4B5B681B0903F00F030A49CB5C22FAC1
:101B4C0003F3094A1360094B1B681846FFF7A8F901
:101B5C00002318461037BD4680BD00BF0020024050
:101B6C0000100240FC4E0008100000201400002061
:101B7C0080B487B000AF0023FB600023BB60002360
:101B8C007B6100237B6000233B611E4B5B68FB6029
:101B9C00FB6803F00C03042B02D0082B03D027E0C6
:101BAC00194B3B6127E0FB689B0C03F00F03174AB2
:101BBC00D35C7B60FB6803F48033002B10D0114B9B
:101BCC005B685B0C03F00103114AD35CBB607B6860
:101BDC000D4A03FB02F2BB68B2FBF3F37B6104E03A
:101BEC007B680C4A02FB03F37B617B693B6102E07F
:101BFC00054B3B6100BF3B6918461C37BD4680BC9A
:101C0C00704700BF0010024000127A00144F000809
:101C1C00244F000800093D0080B400AF024B1B6844
:101C2C001846BD4680BC70471000002080B500AF40
:101C3C00FFF7F2FF0246054B5B68DB0A03F0070374
:101C4C000349CB5C22FA03F3184680BD0010024016
:101C5C000C4F000880B485B000AF78600A4B1B684D
:101C6C000A4AA2FB03235B0A7A6802FB03F3FB60BC
:101C7C0000BFFB685A1EFA60002BF9D100BF00BFF1
:101C8C001437BD4680BC704710000020D34D621045
:101C9C0080B586B000AF786000233B610023FB6009
:101CAC007B681B6803F00103002B7DD00023FB75C0
:101CBC004F4BDB6903F08053002B0DD14C4BDB6990
:101CCC004B4A43F08053D361494BDB6903F080539B
:101CDC00BB60BB680123FB75464B1B6803F4807328
:101CEC00002B18D1434B1B68424A43F4807313609A
:101CFC00FFF718F9386108E0FFF714F902463B6961
:101D0C00D31A642B01D903236DE03A4B1B6803F4FF
:101D1C008073002BF0D0364B1B6A03F44073FB60CE
:101D2C00FB68002B2ED07B685B6803F44073FA6869
:101D3C009A4227D02E4B1B6A23F44073FB602E4B28
:101D4C0001221A602C4B00221A60294AFB6813628C
:101D5C00FB6803F00103002B14D0FFF7E3F83861A4
:101D6C000AE0FFF7DFF802463B69D31A41F28832EA
:101D7C00934201D9032336E01D4B1B6A03F0020387
:101D8C00002BEED01A4B1B6A23F440727B685B6805
:101D9C00174913430B62FB7D012B05D1144BDB69F7
:101DAC00134A23F08053D3617B681B6803F0020352
:101DBC00002B08D00E4B5B6823F440427B689B6879
:101DCC000B4913434B607B681B6803F01003002B1B
:101DDC0008D0074B5B6823F480027B68DB680449FE
:101DEC0013434B60002318461837BD4680BD00BF17
:101DFC0000100240007000404004424280B588B0A0
:101E0C0000AF786000237B610023FB6100233B6102
:101E1C000023FB600023BB617B68102B0AD07B681E
:101E2C00102B00F28A807B68012B45D07B68022B3B
:101E3C0075D082E0464B5B68FB60454B1B6803F03A
:101E4C008073002B7BD0FB689B0C03F00F03414A83
:101E5C00D35C3B61FB6803F48033002B15D03C4B07
:101E6C005B685B0C03F001033B4AD35C7B61FB6852
:101E7C0003F48033002B0DD0384A7B69B2FBF3F2AC
:101E8C003B6902FB03F3FB6104E03B69344A02FB50
:101E9C0003F3FB612E4B5B6803F48003B3F5800FF7
:101EAC0002D1FB69BB614AE0FB695B002D4AA2FBD6
:101EBC0003235B08BB6142E0254B1B6AFB60FB689C
:101ECC0003F44073B3F5807F08D1FB6803F0020381
:101EDC00002B03D04FF40043BB611FE0FB6803F4FD
:101EEC004073B3F5007F09D1194B5B6A03F0020311
:101EFC00002B03D049F64043BB610FE0FB6803F4B1
:101F0C004073B3F5407F1CD1114B1B6803F40033B5
:101F1C00002B16D04FF22443BB6112E011E0FFF707
:101F2C0085FE02460A4B5B689B0B03F003030133EF
:101F3C005B00B2FBF3F3BB6104E000BF02E000BF47
:101F4C0000E000BFBB6918462037BD4680BD00BF0E
:101F5C0000100240284F0008384F000800127A0089
:101F6C0000093D00ABAAAAAA80B584B000AF786086
:101F7C000023FB607B68002B01D101237AE07B6896
:101F8C005B7CDBB2002B05D17B6800221A7478686D
:101F9C00FEF784FE7B6802225A74786800F0EAFA35
:101FAC000346002B04D07B6804225A74012361E0A1
:101FBC00786800F0A3FB0346002B04D07B68042256
:101FCC005A74012356E07B681B685A687B681B684F
:101FDC0022F007025A607B689B68002B05D0274BC8
:101FEC001B6B264A23F001031363244BDB6A23F497
:101FFC0060727B689B6821491343CB627B685B688A
:10200C00B3F1FF3F03D07B685B68FB600EE00120FF
:10201C00FFF7F4FEF860FB68002B04D17B68042208
:10202C005A74012326E0FB68013BFB60FB681A0C29
:10203C007B681B6802F00F029A607B681B68FA6869
:10204C0092B2DA60786800F081FB0346002B04D072
:10205C007B6804225A7401230CE07B680022DA733B
:10206C007B6801225A737B6801229A737B68012278
:10207C005A74002318461037BD4680BD006C0040D2
:10208C0090B587B000AFF860B9607A6000237B61CF
:10209C0000233B61FB68002B02D0BB68002B01D1F5
:1020AC00012380E0FB681B7C012B01D102237AE029
:1020BC00FB6801221A74FB6802225A747B68002B9D
:1020CC0013D1BB681B781A464FF4616303FB02F211
:1020DC00BB685B7819460B461B015B1A9B001344CB
:1020EC00BA68927813447B611EE0BB681B78184673
:1020FC0000F071FB03461A464FF4616303FB02F4D4
:10210C00BB685B78184600F066FB03461A4613461C
:10211C001B019B1A9B001C44BB689B78184600F063
:10212C005AFB034623447B617969F86800F07FFA17
:10213C000346002B07D0FB6804225A74FB6800226C
:10214C001A7401232FE0FB681B685A68FB681B6834
:10215C0022F005025A60F86800F090FA38613B6989
:10216C00B3F1FF3F18D03A697B699A4214D23B69AC
:10217C0003F5A83303F5C0733B613969F86800F0C7
:10218C0096FA0346002B07D0FB6804225A74FB68AE
:10219C0000221A74012306E0FB6801225A74FB68C2
:1021AC0000221A74002318461C37BD4690BD00004F
:1021BC0080B588B000AFF860B9607A600023BB616D
:1021CC000023FB6100237B6100233B61FB68002B38
:1021DC0002D0BB68002B01D10123B5E0FB681B6862
:1021EC005B6803F00403002B01D00123ACE0F8681A
:1021FC0000F0EDF9B861BB69554AA2FB0323DB0A79
:10220C003B61BA69524BA3FB0213DB0A4FF46161C9
:10221C0001FB03F3D31A4F4AA2FB03235B09DAB287
:10222C00BB685A70BB694A4AA2FB0312D20A4FF42C
:10223C00616101FB02F29A1A464BA3FB0213590986
:10224C000B461B015B1A9B00D11ACAB2BB689A7071
:10225C003B69172B55D93B693F4AA2FB03231B094A
:10226C007B6139693C4BA3FB01231A0913465B00C4
:10227C001344DB00CA1AD2B2BB681A70F86800F0BB
:10228C00FDF9F861FB69B3F1FF3F08D0FA69BB694E
:10229C009A4204D9FA69BB69D31AFB6102E04FF088
:1022AC00FF33FB617B692D4A02FB03F3BA69D31A36
:1022BC00BB61B969F86800F0BAF90346002B01D08C
:1022CC00012341E0FB69B3F1FF3F0CD0FA69BB6914
:1022DC001344FB61F969F86800F0E9F90346002B37
:1022EC000AD0012330E0F969F86800F0E0F9034600
:1022FC00002B01D0012327E07969F86800F088FAF7
:10230C0003E03B69DAB2BB681A707B68002B1AD009
:10231C00BB681B78184600F041FA03461A46BB68A6
:10232C001A70BB685B78184600F038FA03461A46F8
:10233C00BB685A70BB689B78184600F02FFA0346AE
:10234C001A46BB689A70002318462037BD4680BDDC
:10235C00C5B3A29189888888ABAAAAAA805101002A
:10236C0080B588B000AFF860B9607A600023FB617B
:10237C000023BB6100237B61FB68002B02D0BB6890
:10238C00002B01D1012397E0FB681B7C012B01D1B1
:10239C00022391E0FB6801221A74FB6802225A7432
:1023AC007B68002B0CD1BB68DA78FB68DA73BB68EE
:1023BC005A78FB685A73BB689A78FB689A731AE070
:1023CC00BB68DB78184600F006FA03461A46FB6831
:1023DC00DA73BB685B78184600F0FDF903461A46C1
:1023EC00FB685A73BB689B78184600F0F4F90346F7
:1023FC001A46FB689A73FB68DB7B1846FB68597BB3
:10240C00FB689B7B1A4600F0DFFA03461A46FB6812
:10241C001A73FB681A7BBB681A70F86800F0D7F85F
:10242C00F861FB69264AA2FB0323DB0A7B617B690B
:10243C00182B3AD97B69234AA2FB03231B09224A96
:10244C0002FB03F3FA69D31AFB61F969F86800F02F
:10245C00EEF80346002B07D0FB6804225A74FB6885
:10246C0000221A74012327E0F86800F007F9B8611C
:10247C00BB69B3F1FF3F18D0BA69FB699A4214D219
:10248C00BB6903F5A83303F5C073BB61B969F86880
:10249C0000F00DF90346002B07D0FB6804225A7498
:1024AC00FB6800221A74012306E0FB6801225A74AF
:1024BC00FB6800221A74002318462037BD4680BDE5
:1024CC00C5B3A291ABAAAAAA8051010080B586B06F
:1024DC0000AFF860B9607A6007F1140300210A4676
:1024EC001A800A469A70FB68002B02D0BB68002B3E
:1024FC0001D101233AE007F1140300221946F868D0
:10250C00FFF756FE0346002B01D001232EE0FB689B
:10251C001A7BBB681A70FB68DA7BBB68DA70FB68E5
:10252C005A7BBB685A70FB689A7BBB689A707B6855
:10253C00002B1AD0BB68DB78184600F02FF9034645
:10254C001A46BB68DA70BB685B78184600F026F94F
:10255C0003461A46BB685A70BB689B78184600F055
:10256C001DF903461A46BB689A70002318461837A3
:10257C00BD4680BD80B584B000AF78600023FB60A1
:10258C007B68002B01D101231DE07B681B685A6816
:10259C007B681B6822F008025A60FEF7C3FCF860E7
:1025AC0009E0FEF7BFFC0246FB68D31AB3F57A7F4D
:1025BC0001D9032307E07B681B685B6803F0080301
:1025CC00002BEED0002318461037BD4680BD80B4DA
:1025DC0087B000AF786000237B8200233B8200230E
:1025EC00FB8100237B617B681B689B697B827B681A
:1025FC001B68DB69FB817B681B689B693B827A8A61
:10260C003B8A9A4208D03B8A1A047B681B68DB69B8
:10261C009BB213437B6104E07B8A1A04FB8913434E
:10262C007B617B6918461C37BD4680BC704780B502
:10263C0084B000AF786039600023FB73786800F0D9
:10264C005DF80346002B02D00123FB7311E07B687D
:10265C001B683A68120C9A617B681B683A6892B2E4
:10266C00DA61786800F072F80346002B01D0012380
:10267C00FB73FB7B18461037BD4680BD80B485B01C
:10268C0000AF78600023FB810023BB817B681B6853
:10269C001B6AFB817B681B685B6ABB81FB891A0424
:1026AC00BB89134318461437BD4680BC704780B5B0
:1026BC0084B000AF786039600023FB73786800F059
:1026CC001DF80346002B02D00123FB7311E07B683D
:1026DC001B683A68120C1A627B681B683A6892B2E3
:1026EC005A62786800F032F80346002B01D00123BF
:1026FC00FB73FB7B18461037BD4680BD80B584B09C
:10270C0000AF78600023FB60FEF70CFCF86009E07A
:10271C00FEF708FC0246FB68D31AB3F57A7F01D9A1
:10272C0003230FE07B681B685B6803F02003002B1E
:10273C00EED07B681B685A687B681B6842F01002FD
:10274C005A60002318461037BD4680BD80B584B052
:10275C0000AF78600023FB607B681B685A687B685D
:10276C001B6822F010025A60FEF7DCFBF86009E0EF
:10277C00FEF7D8FB0246FB68D31AB3F57A7F01D972
:10278C00032307E07B681B685B6803F02003002BC6
:10279C00EED0002318461037BD4680BD80B485B0FE
:1027AC0000AF0346FB710023FB6005E0FB680133BF
:1027BC00FB60FB790A3BFB71FB79092BF6D8FB68B4
:1027CC00DBB21B01DAB2FB791343DBB218461437C8
:1027DC00BD4680BC704780B485B000AF0346FB712A
:1027EC000023FB60FB791B09DBB21A4613469B00E6
:1027FC0013445B00FB60FB7903F00F03DAB2FB6858
:10280C00DBB21344DBB218461437BD4680BC7047AC
:10281C0080B586B000AF7860396000237B610023FF
:10282C003B610023FB600023BB607B68DB7B7B612F
:10283C007B685B7B3B617B689B7BFB600023BB60A5
:10284C006FE03B69012B11D03B69032B0ED03B6928
:10285C00052B0BD03B69072B08D03B69082B05D007
:10286C003B690A2B02D03B690C2B17D1FB681E2B42
:10287C0003D8FB680133FB6050E03B690C2B05D09F
:10288C003B6901333B610123FB6047E001233B6162
:10289C000123FB607B6901337B613FE03B69042BC7
:1028AC0008D03B69062B05D03B69092B02D03B694C
:1028BC000B2B0CD1FB681D2B03D8FB680133FB6081
:1028CC002CE03B6901333B610123FB6026E03B6953
:1028DC00022B23D1FB681B2B03D8FB680133FB6055
:1028EC001CE0FB681C2B11D17B699BB2184600F0D5
:1028FC0039F80346002B03D0FB680133FB600DE075
:10290C003B6901333B610123FB6007E0FB681D2B36
:10291C0004D13B6901333B610123FB60BB6801338C
:10292C00BB60BA683B689A428BD37B69DAB27B682E
:10293C00DA733B69DAB27B685A73FB68DAB27B688C
:10294C009A733B69DBB2FA68D2B21946786900F027
:10295C003BF803461A467B681A7300BF1837BD460E
:10296C0080BD000080B483B000AF0346FB80FB88C1
:10297C0003F003039BB2002B01D000231DE0FB8866
:10298C00104AA2FB03125209642101FB02F29B1AAA
:10299C009BB2002B01D001230FE0FB88094AA2FB5C
:1029AC000312D2094FF4C87101FB02F29B1A9BB2BD
:1029BC00002B01D1012300E0002318460C37BD4643
:1029CC0080BC70471F85EB5180B485B000AF786038
:1029DC000B46FB701346BB700023BB600023FB60EF
:1029EC007B6803F5FA63BB60FB78022B2DD8FA7871
:1029FC0013465B001344DB009B1A2C4AA2FB0323F7
:102A0C005A08BB781A44BB681A44BB68013B9B0844
:102A1C001A44BB68013B2649A1FB03135B09D21A7C
:102A2C00BB68013B2249A1FB0313DB0913441A1DAC
:102A3C00204BA3FB0213D11A49080B4499080B46EF
:102A4C00DB005B1AD31AFB6029E0FA7813465B00B3
:102A5C001344DB009B1A154AA2FB03235A08BB78CC
:102A6C001A44BB681A44BB689B081A44BB681049DB
:102A7C00A1FB03135B09D21ABB680D49A1FB03131D
:102A8C00DB0913449A1C0B4BA3FB0213D11A490804
:102A9C000B4499080B46DB005B1AD31AFB60FB68EE
:102AAC00DBB218461437BD4680BC7047398EE3380C
:102ABC001F85EB512549922480B582B000AF786018
:102ACC007B68002B01D1012376E07B685B6A002BCD
:102ADC0008D17B685B68B3F5827F09D07B680022E4
:102AEC00DA6105E07B6800221A617B6800225A617A
:102AFC007B6800229A627B6893F85130DBB2002B22
:102B0C0006D17B68002283F850207868FEF7EAF83B
:102B1C007B68022283F851207B681B681A687B68EB
:102B2C001B6822F040021A607B685B6803F48272B7
:102B3C007B689B6803F404431A437B68DB6803F4EB
:102B4C0000631A437B681B6903F002031A437B681A
:102B5C005B6903F001031A437B689B6903F4007300
:102B6C001A437B68DB6903F038031A437B681B6AE2
:102B7C0003F0800342EA03017B689B6A03F4005272
:102B8C007B681B680A431A607B689B691A0C7B681C
:102B9C001B6802F004025A607B681B68DA697B6868
:102BAC001B6822F40062DA617B6800225A657B683C
:102BBC00012283F85120002318460837BD4680BDFA
:102BCC0080B588B000AFF860B9603B601346FB80FD
:102BDC000023FB77FB6893F85030012B01D10223C3
:102BEC002DE1FB68012283F85020FEF79BF9B861B8
:102BFC00FB88FB82FB6893F85130DBB2012B02D0CF
:102C0C000223FB7716E1BB68002B02D0FB88002B5C
:102C1C0002D10123FB770DE1FB68032283F85120DD
:102C2C00FB6800225A65FB68BA681A63FB68FA886D
:102C3C009A86FB68FA88DA86FB6800229A63FB683E
:102C4C0000229A87FB680022DA87FB6800225A640C
:102C5C00FB6800221A64FB689B68B3F5004F0FD128
:102C6C00FB681B681A68FB681B6822F040021A603C
:102C7C00FB681B681A68FB681B6842F480421A6088
:102C8C00FB681B681B6803F04003402B07D0FB68F4
:102C9C001B681A68FB681B6842F040021A60FB68EC
:102CAC00DB68B3F5006F4FD1FB685B68002B02D07B
:102CBC00FB8A012B42D1FB681B6B1A88FB681B68D3
:102CCC00DA60FB681B6B9A1CFB681A63FB68DB8E73
:102CDC009BB2013B9AB2FB68DA862FE0FB681B685B
:102CEC009B6803F00203022B12D1FB681B6B1A8842
:102CFC00FB681B68DA60FB681B6B9A1CFB681A6329
:102D0C00FB68DB8E9BB2013B9AB2FB68DA8615E05E
:102D1C00FEF708F90246BB69D31A3A689A4203D8FF
:102D2C003B68B3F1FF3F02D13B68002B06D1032374
:102D3C00FB77FB68012283F851207BE0FB68DB8E7C
:102D4C009BB2002BCAD150E0FB685B68002B02D011
:102D5C00FB8A012B44D1FB681A6BFB681B680C3394
:102D6C0012781A70FB681B6B5A1CFB681A63FB68A1
:102D7C00DB8E9BB2013B9AB2FB68DA8630E0FB68D3
:102D8C001B689B6803F00203022B13D1FB681A6BC0
:102D9C00FB681B680C3312781A70FB681B6B5A1C8F
:102DAC00FB681A63FB68DB8E9BB2013B9AB2FB6833
:102DBC00DA8615E0FEF7B6F80246BB69D31A3A6814
:102DCC009A4203D83B68B3F1FF3F02D13B68002B1A
:102DDC0006D10323FB77FB68012283F8512029E0FD
:102DEC00FB68DB8E9BB2002BC9D1BA693968F868D5
:102DFC0000F0B2F80346002B02D0FB6820225A6583
:102E0C00FB689B68002B0AD100233B61FB681B68A5
:102E1C00DB683B61FB681B689B683B613B69FB683B
:102E2C005B6D002B02D00123FB7703E0FB680122D2
:102E3C0083F85120FB68002283F85020FB7F184652
:102E4C002037BD4680BD000080B588B000AFF8606B
:102E5C00B9603B601346FB71FEF764F80246BB6A2F
:102E6C009B1A3A681344FB61FEF75CF8B861394B66
:102E7C001B685B011B0DFA6902FB03F37B6154E0D9
:102E8C003B68B3F1FF3F50D0FEF74CF80246BB69EC
:102E9C00D31AFA699A4202D9FB69002B3DD1FB681F
:102EAC001B685A68FB681B6822F0E0025A60FB68DA
:102EBC005B68B3F5827F11D1FB689B68B3F5004F5B
:102ECC0004D0FB689B68B3F5806F07D1FB681B6867
:102EDC001A68FB681B6822F040021A60FB689B6A48
:102EEC00B3F5005F0FD1FB681B681A68FB681B68A1
:102EFC0022F400521A60FB681B681A68FB681B6896
:102F0C0042F400521A60FB68012283F85120FB68DE
:102F1C00002283F85020032317E07B69002B01D19A
:102F2C000023FB617B69013B7B61FB681B689A6832
:102F3C00BB681340BA689A420CBF01230023DBB272
:102F4C001A46FB799A429BD1002318462037BD467E
:102F5C0080BD00BF1000002080B586B002AFF860C5
:102F6C00B9607A607B680093BB6800228021F868A6
:102F7C00FFF76AFF0346002B07D0FB685B6D43F03D
:102F8C002002FB685A65032300E000231846103723
:102F9C00BD4680BD70B50E4E0C463168054611B964
:102FAC0000F0CCF830602146284600F0C7F8431CEE
:102FBC000AD0C41C24F00304A04207D0211A2846CE
:102FCC0000F0BCF8013001D14FF0FF34204670BD49
:102FDC00000100202DE9F843CD1C25F00305083530
:102FEC000C2D38BF0C25002D074601DBA94205D955
:102FFC000C2300263B603046BDE8F883DFF8D08018
:10300C0000F068F8D8F800301C465CBB29463846FE
:10301C00FFF7C0FF431C044655D1D8F800402646A4
:10302C00002E45D1002C48D023683146384604EB9D
:10303C00030900F083F881453FD1216838466D1AA9
:10304C002946FFF7A7FF013037D023682B442360B4
:10305C00D8F80030002B38D05A68A2422BD100226D
:10306C005A600FE02268521B1FD40B2A17D9611922
:10307C00A342256018BF5960636808BFC8F80010E8
:10308C0062514B60384604F10B0600F029F826F02B
:10309C000706231DF21AAED09B1BA350ABE7A3422D
:1030AC006268DDD1C8F80020ECE723466468ACE721
:1030BC0034467668B4E71346CCE70C2338463B60BD
:1030CC0000F00EF897E72560DCE75B60FFDE00BFE1
:1030DC00FC000020014800F06BB800BF400200204B
:1030EC00014800F066B800BF400200200EB46FF03B
:1030FC00004100B59CB01DAB029006900791049165
:10310C000848094953F8042B0591006802A901935A
:10311C0000F0F2F80022029B1A701CB05DF804EB70
:10312C0003B07047680000200802FFFF034602440A
:10313C00934200D1704703F8011BF9E738B500231F
:10314C00054D044608462B60FDF732FE431C02D1A8
:10315C002B6803B1236038BD3C020020014B18687A
:10316C00704700BF6800002070B500260C4D0D4C58
:10317C00641BA410A64209D100F0BEFB00260A4D28
:10318C000A4C641BA410A64205D170BD55F8043B33
:10319C0098470136EEE755F8043B98470136F2E7BD
:1031AC00704F0008704F0008704F0008744F0008F3
:1031BC007047704738B50546002940D051F8043C9B
:1031CC000C1F002BB8BFE418FFF784FF1C4A1368D0
:1031DC0033B9636014602846BDE83840FFF780BF00
:1031EC00A34208D9206821188B4201BF19685B687B
:1031FC0009182160EDE71A465B680BB1A342FAD9B6
:10320C0011685018A0420BD1206801445018834219
:10321C001160E0D118685B68084410605360DAE70D
:10322C0002D90C232B60D6E7206821188B4201BFF2
:10323C0019685B680918216063605460CBE738BD7E
:10324C00FC0000202DE9F0471F468E688246BE42E6
:10325C000C4690460B682CD88A8912F4906F26D0B5
:10326C006569096905EB4505A3EB010905EBD57506
:10327C007B1C4B446D109D4238BF1D46530527D512
:10328C002946FFF7A7FE064660B34A46216900F0BF
:10329C00EDFAA38923F4906343F08003A3812661A4
:1032AC004E4426603E466561A5EB0905A560BE420D
:1032BC0000D93E4632464146206800F0AFFA002065
:1032CC00A3689B1BA360236833442360BDE8F0878D
:1032DC002A4600F0D9FA06460028E0D1504621696A
:1032EC00FFF768FF0C23CAF80030A3894FF0FF30BA
:1032FC0043F04003A381E9E72DE9F04F98468B8911
:10330C0007461B060D4614469DB00ED50B6963B9D6
:10331C004021FFF75FFE2860286120B90C233B6039
:10332C004FF0FF30D0E040236B6100230993202342
:10333C008DF8293030234FF00109CDF80C80DFF8DF
:10334C00A0818DF82A3023469A4613F8012B0AB136
:10335C00252AF9D1BAEB040B0BD05B462246294641
:10336C003846FFF76FFF013000F0A980099A5A44E4
:10337C0009929AF80030002B00F0A18000234FF046
:10338C00FF32CDE905230AF1010A049307938DF866
:10339C0053301A935446052214F8011B504800F080
:1033AC0057FA049AD8B9D00644BF20238DF853306D
:1033BC00110744BF2B238DF853309AF800302A2B79
:1033CC0015D0544600204FF00A0C079A214611F8EC
:1033DC00013B303B092B4DD9B0B1079214E0A0EB67
:1033EC00080309FA03F31343A2460493D2E7039BA1
:1033FC00191D1B680391002BBBBF5B4242F00202FC
:10340C0007930793B8BF049223782E2B0CD16378C3
:10341C002A2B34D1039B02341A1D1B680392002BF8
:10342C00B8BF4FF0FF330593DFF8B8A00322504626
:10343C00217800F00DFA38B14022049BA0EB0A0071
:10344C00824013430134049314F8011B06222648CE
:10345C008DF8281000F0FCF9002838D0234B1BBB4A
:10346C00039B073323F0070308330393099B33446F
:10347C00099368E70C4601200CFB0232A6E70023F7
:10348C004FF00A0C194601340593204610F8012B15
:10349C00303A092A03D9002BC6D00591C4E704465B
:1034AC0001230CFB0121F0E703AB00932A463846BD
:1034BC000F4B04A9AFF30080421C0646D6D1AB8952
:1034CC005B063FF52DAF09981DB0BDE8F08F03AB3F
:1034DC0000932A463846064B04A900F07DF8EBE72A
:1034EC003A4F0008404F0008444F0008000000000D
:1034FC00513200082DE9F047164699468A680B6947
:10350C0007469342B8BF1346336091F843200C46EC
:10351C00DDF820800AB1013333602368990642BF7D
:10352C00336802333360256815F0060506D104F1C3
:10353C00190AE36832689B1AAB422BDC94F84320DF
:10354C00131E226818BF0123920630D44946384610
:10355C0004F14302C047013023D02368226903F0F1
:10356C000603042B14BF002533684FF0000608BF78
:10357C00E56804F11A0408BFED1A54F8123C08BFB0
:10358C0025EAE5759342C4BF9B1AED18B5421AD1D2
:10359C00002008E00123524649463846C047013016
:1035AC0003D14FF0FF30BDE8F0870135C1E7302083
:1035BC00E11881F843005A1C94F845102244023358
:1035CC0082F84310C2E70123224649463846C047D9
:1035DC000130E6D00136D9E72DE9FF470F7E914641
:1035EC00782F80460C469A460C9D01F1430207D871
:1035FC00622F0AD8002F00F0D580582F00F0C18020
:10360C0004F1420584F842703AE0A7F16303152BEC
:10361C00F6D801A151F823F07D3600089136000848
:10362C000D3600080D3600080D3600080D36000862
:10363C00913600080D3600080D3600080D360008CE
:10364C000D36000897370008BD36000851370008C2
:10365C000D3600080D360008B93700080D36000885
:10366C00BD3600080D3600080D3600085937000825
:10367C002B681A1D1B682A6004F1420584F842303D
:10368C000123A0E020682B68070603F104012960E0
:10369C0001D51E6803E04606FBD5B3F90060002E89
:1036AC0003DA2D23764284F843300A23594812E07A
:1036BC002B682068191D2960050601D51E6802E0DB
:1036CC004106FBD51E886F2F0CBF08230A235148D7
:1036DC00002184F843106568002DA8BF2168A560FF
:1036EC00A4BF21F0040121600EB9002D4BD015466A
:1036FC00B6FBF3F103FB1167C75D05F8017D374697
:10370C00BB420E46F4D9082B0BD12368DE0708D533
:10371C00236961689942DEBF302305F8013C05F14D
:10372C00FF35521B22614B4621464046CDF800A086
:10373C0003AAFFF7DFFE01304AD14FF0FF3004B08F
:10374C00BDE8F087236843F02003236078273248D4
:10375C0084F84570236829681F0651F8046B02D45D
:10376C005F0648BFB6B2DF0748BF43F020032960AD
:10377C0048BF23601EB9236823F020032360102365
:10378C00A6E72448E4E71546BDE72B682668181D14
:10379C006169286035061B6801D5196002E0700666
:1037AC00FBD51980002315462361BCE72B6800214B
:1037BC001A1D2A601D686268284600F049F808B195
:1037CC00401B606063682361002384F84330AAE7E0
:1037DC002A46494640462369D0470130ADD023687C
:1037EC009B0713D4E068039B9842B8BF1846A6E722
:1037FC000123324649464046D04701309DD0013521
:10380C00E36803995B1AAB42F2DCEBE7002504F1A9
:10381C001906F5E74B4F00085C4F0008884210B5BD
:10382C0001EB020402D98442234607D8431EA1426D
:10383C0008D011F8012B03F8012FF8E701460244D8
:10384C008A4200D110BD13F8014D02F8014DF7E783
:10385C00034610B5C9B202449342184601D1002068
:10386C0003E0047801338C42F6D110BD0A44914236
:10387C0000F1FF3300D1704710B511F8014B9142A4
:10388C0003F8014FF9D110BD2DE9F04180461446E3
:10389C000E4621B91146BDE8F041FFF79BBB2AB992
:1038AC00FFF788FC25462846BDE8F08100F01BF8A0
:1038BC008442074602D8B4EB500F12D8214640463A
:1038CC00FFF788FB05460028EDD0BC422246314666
:1038DC0028BF3A46FFF7CAFF31464046FFF76AFC5D
:1038EC00E1E73546DFE751F8043C181F002BBCBF5D
:1038FC000B58C01870470000F8B500BFF8BC08BCE6
:10390C009E467047F8B500BFF8BC08BC9E46704791
:10391C004469676974616C20436C6F636B000000D1
:10392C00253032643A253032643A25303264000056
:10393C0025303264000000004A616E00466562006A
:10394C004D617200417072004D6179004A756E00D4
:10395C004A756C0041756700536570740000000077
:10396C004F6374004E6F7600446563004D6F6E6458
:10397C006179000054756573646179005765646EF4
:10398C0065736461790000005468757273646179C1
:10399C00000000004672696461790000536174751F
:1039AC00726461790000000053756E6461790000E7
:1039BC000F0180961180FFB103012C2DB203012C55
:1039CC002DB306012C2D012C2DB40107C003A2022E
:1039DC0084C101C5C2020A00C3028A2AC4028AEE4B
:1039EC00C5010E21003601C03A010500022A04006F
:1039FC0000007F2B040000007F00000004E0100298
:103A0C001C07123732292D29252B3900010310E10F
:103A1C0010031D07062E2C292D2E2E373F000002D9
:103A2C001013800A298064000000000000000000D0
:103A3C00000000000000000000000000001000105A
:103A4C00001000100010001000000010000000001A
:103A5C0000280028002800000000000000000000E2
:103A6C000000000000240024007C00240048007C9E
:103A7C000048004800000000003800540050003896
:103A8C0000140054005400380010000000200054B2
:103A9C0000580030002800540014000800000000FA
:103AAC0000100028002800100034004800480034A2
:103ABC0000000000001000100010000000000000CA
:103ACC000000000000000000000800100020002092
:103ADC000020002000200020001000080020001012
:103AEC00000800080008000800080008001000206A
:103AFC00001000380010002800000000000000003A
:103B0C00000000000000000000100010007C0010FD
:103B1C000010000000000000000000000000000089
:103B2C000000000000000010001000100000000059
:103B3C000000000000000038000000000000000041
:103B4C000000000000000000000000000000001059
:103B5C000000000000080008001000100010001009
:103B6C0000200020000000000038004400440054F5
:103B7C0000440044004400380000000000100030F5
:103B8C000050001000100010001000100000000089
:103B9C000038004400440004000800100020007CA1
:103BAC000000000000380044000400180004000469
:103BBC00004400380000000000080018002800280D
:103BCC000048007C0008000800000000007C004059
:103BDC00004000780004000400440038000000009D
:103BEC000038004400400078004400440044003891
:103BFC0000000000007C00040008001000100020F1
:103C0C000020002000000000003800440044003870
:103C1C000044004400440038000000000038004418
:103C2C0000440044003C0004004400380000000044
:103C3C000000000000100000000000000000001058
:103C4C000000000000000000000000100000000058
:103C5C00000000100010001000000000000C0030EC
:103C6C0000400030000C00000000000000000000CC
:103C7C000000007C0000007C000000000000000040
:103C8C000000000000600018000400180060000034
:103C9C000000000000380044000400080010001070
:103CAC00000000100000000000380044004C0054DC
:103CBC00005C0040004000380000000000100028AC
:103CCC00002800280028007C00440044000000006C
:103CDC00007800440044007800440044004400781C
:103CEC00000000000038004400400040004000404C
:103CFC0000440038000000000070004800440044FC
:103D0C00004400440048007000000000007C0040AB
:103D1C000040007C004000400040007C000000009F
:103D2C00007C004000400078004000400040004013
:103D3C00000000000038004400400040005C0044DB
:103D4C000044003800000000004400440044007CA3
:103D5C0000440044004400440000000000380010FF
:103D6C0000100010001000100010003800000000BF
:103D7C0000040004000400040004000400440038A3
:103D8C000000000000440048005000600050004853
:103D9C00004800440000000000400040004000408B
:103DAC00004000400040007C000000000044006C1B
:103DBC00006C005400440044004400440000000027
:103DCC0000440064006400540054004C004C004457
:103DDC00000000000038004400440044004400444B
:103DEC000044003800000000007800440044004407
:103DFC000078004000400040000000000038004403
:103E0C000044004400440044005400380004000006
:103E1C000078004400440044007800480048004406
:103E2C00000000000038004400400030000800048E
:103E3C000044003800000000007C0010001000104E
:103E4C00001000100010001000000000004400449E
:103E5C0000440044004400440044003800000000CA
:103E6C0000440044004400280028002800100010E2
:103E7C000000000000440044005400540054006C46
:103E8C000028002800000000004400280028001032
:103E9C0000100028002800440000000000440044EA
:103EAC000028002800100010001000100000000076
:103EBC00007C000400080010001000200040007C72
:103ECC00000000000018001000100010001000107E
:103EDC00001000100010001800200020001000102E
:103EEC000010001000080008000000000030001056
:103EFC000010001000100010001000100010003016
:103F0C000010002800280044000000000000000001
:103F1C000000000000000000000000000000000095
:103F2C0000000000000000FE002000100000000057
:103F3C000000000000000000000000000000000075
:103F4C0000380044003C0044004C003400000000E9
:103F5C0000400040005800640044004400640058D5
:103F6C000000000000000000003800440040004049
:103F7C000044003800000000000400040034004C31
:103F8C0000440044004C003400000000000000001D
:103F9C0000380044007C0040004400380000000061
:103FAC00000C0010007C001000100010001000101D
:103FBC0000000000000000000034004C00440044ED
:103FCC00004C0034000400780040004000580064AD
:103FDC0000440044004400440000000000100000B5
:103FEC000070001000100010001000100000000005
:103FFC0000100000007000100010001000100010E5
:10400C00001000E0004000400048005000600050EC
:10401C000048004400000000007000100010001068
:10402C000010001000100010000000000000000044
:10403C000078005400540054005400540000000058
:10404C000000000000580064004400440044004498
:10405C000000000000000000003800440044004450
:10406C00004400380000000000000000005800640C
:10407C000044004400640058004000400000000070
:10408C000034004C00440044004C00340004000494
:10409C000000000000580064004000400040004058
:1040AC000000000000000000003800440030000850
:1040BC0000440038000000000020002000780020A0
:1040CC00002000200020001800000000000000006C
:1040DC000044004400440044004C00340000000044
:1040EC0000000000004400440028002800280010B4
:1040FC000000000000000000005400540054006C4C
:10410C0000280028000000000000000000440028E7
:10411C000010001000280044000000000000000007
:10412C00004400440028002800100010001000601B
:10413C0000000000007C0008001000200040007C03
:10414C0000000000001800100010001000200020DB
:10415C0000100010001000180010001000100010CB
:10416C0000100010001000100010001000300010A3
:10417C0000100010000800080010001000100030A3
:10418C000000000000000074004C00000000000063
:10419C000000000000000000000000000000000013
:1041AC000000000000000000000000000000000003
:1041BC0000000000000000000000000C000C000CCF
:1041CC00000C000C000C000C000C000C000C000C83
:1041DC000000000C000C0000000000000000001BA0
:1041EC00001B001B001B001B000000000000000057
:1041FC0000000000000000000000000000000000B3
:10420C0000008019801980198019C07FC07F801927
:10421C000033C07FC07F0033003300330033000015
:10422C00000000000000001E003F807580650074D7
:10423C00003C001E00078005806580658075003F8E
:10424C00001E0004000400000000007000D840D8DC
:10425C00C0D880D900730006000C801BC036C06625
:10426C00C046C00680030000000000000000001ED5
:10427C00003F003300330033001E000CC03CC0660E
:10428C00806380618063C03E801C000000000000E1
:10429C000000000C000C000C000C000C00000000D6
:1042AC000000000000000000000000000000000002
:1042BC00000000008000000100030006000600045E
:1042CC00000C000C000C000C000C000C0004000690
:1042DC000006000300018000002000100018000CF4
:1042EC00000C00040006000600060006000600068E
:1042FC000004000C000C0018001000200000000C42
:10430C00002D003F001E00330000000000000000E4
:10431C000000000000000000000000000000000091
:10432C00000000000000000C000C000C000CC0FF92
:10433C00C0FF000C000C000C000C00000000000082
:10434C000000000000000000000000000000000061
:10435C000000000000000000000000000000000C45
:10436C00000C000400040008000000000000000025
:10437C0000000000000000000000001E001E0000F5
:10438C000000000000000000000000000000000021
:10439C000000000000000000000000000000000011
:1043AC00000000000000000C000C000000000000E9
:1043BC0000000003000300030006000600060006D0
:1043CC00000C000C000C000C001800180018000069
:1043DC00000000000000001E003F0033806180617F
:1043EC008061806D806D8061806180610033003FF1
:1043FC00001E00000000000000000006000E001E61
:10440C000036002600060006000600060006000620
:10441C000006000600060000000000000000001E60
:10442C00003F807380618061800100030006000CF6
:10443C00001800300060807F807F000000000000CA
:10444C000000001C003E006300630003000E000E21
:10445C0000038001800180618073003F001E00001A
:10446C000000000000000006000E000E001E001EE2
:10447C000016003600360066807F807F000600063E
:10448C0000060000000000000000007F007F0060BC
:10449C0000600060006E007F80638001800180619D
:1044AC008073003F001E0000000000000000001E92
:1044BC00003F803380610060006E007F80738061FC
:1044CC00806180618033003F001E0000000000000E
:1044DC000000807F807F800100030003000600063F
:1044EC00000C000C000C000800180018001800004C
:1044FC00000000000000001E003F806380618061AE
:10450C000021001E003F8061806180618061003F5E
:10451C00001E0000000000000000001E003F0073A1
:10452C008061806180618073803F801D800180612B
:10453C000073003F001E000000000000000000009F
:10454C00000000000000000C000C00000000000047
:10455C00000000000000000C000C00000000000037
:10456C00000000000000000000000000000C000C27
:10457C0000000000000000000000000C000C000413
:10458C000004000800000000000000008000800310
:10459C00000E003800600038000E80038000000020
:1045AC0000000000000000000000000000000000FF
:1045BC000000807F807F00000000807F807F0000F3
:1045CC0000000000000000000000000000000000DF
:1045DC000000000000400070001C00078001000774
:1045EC00001C0070004000000000000000000000F3
:1045FC000000001F803FC071C060C000C00180037C
:10460C000007000E000C000C0000000C000C000059
:10461C00000000000000001E003F803180718063AC
:10462C00806F806D806D806F806700600032003E0F
:10463C00001C0000000000000000000E000E001B1B
:10464C00001B001B001B80318031803F803F80317C
:10465C00C060C060C0600000000000000000007C72
:10466C00007E0063006300630063007E007E0063D5
:10467C00806180618063007F007E0000000000008C
:10468C000000001E003F803180610060006000600F
:10469C0000600060006080618031003F001E0000FF
:1046AC00000000000000007C007F006380638061DC
:1046BC008061806180618061806100630063007E45
:1046CC00007C0000000000000000807F807F006004
:1046DC00006000600060007F007F00600060006090
:1046EC000060807F807F0000000000000000807F61
:1046FC00807F0060006000600060007F007F0060D1
:10470C0000600060006000600060000000000000BD
:10471C000000001E003F803180610060006000607E
:10472C0080638063806180618031803F001E000067
:10473C000000000000008061806180618061806108
:10474C008061807F807F8061806180618061806119
:10475C0080610000000000000000003F003F000CE2
:10476C00000C000C000C000C000C000C000C000CDD
:10477C00000C003F003F0000000000000000800122
:10478C008001800180018001800180018001800115
:10479C00806180618073003F001E000000000000FB
:1047AC000000C0608061006300660066006C0078E9
:1047BC00007C00660066006380618061C060000060
:1047CC0000000000000000600060006000600060FD
:1047DC000060006000600060006000600060807F2E
:1047EC00807F0000000000000000C071C071C07B21
:1047FC00C07AC06AC06AC06EC064C060C060C0606D
:10480C00C060C060C060000000000000000080714B
:10481C008071807980798079806D806D806D806504
:10482C008067806780678063806300000000000001
:10483C000000001E003F0033806180618061806158
:10484C0080618061806180610033003F001E000048
:10485C00000000000000007E007F806380618061AA
:10486C0080618063007F007E0060006000600060FB
:10487C0000600000000000000000001E003F00333C
:10488C00806180618061806180618061806580670A
:10489C000033803F401E0000000000000000007E3E
:1048AC00007F8063806180618063007F007E006692
:1048BC000063006380618061C06000000000000044
:1048CC000000000E001F8031803100300038001EC7
:1048DC0000078003806180618031003F001E000072
:1048EC00000000000000C0FFC0FF000C000C000C1A
:1048FC00000C000C000C000C000C000C000C000C4C
:10490C00000C0000000000000000806180618061EC
:10491C008061806180618061806180618061806183
:10492C008073003F001E0000000000000000C0600B
:10493C00C060C060803180318031001B001B001BC7
:10494C00001B000E000E000E000400000000000012
:10495C000000C0C0C0C0C0C0C0C0C0C0C0CC804C73
:10496C00804C805E80528052807380618061000038
:10497C00000000000000C0C0806080610033003B7C
:10498C00001E000C000C001E001F003B807180619B
:10499C00C0C00000000000000000C0C08061806149
:1049AC0000330033001E001E000C000C000C000C29
:1049BC00000C000C000C0000000000000000803F08
:1049CC00803F8001000300030006000C000C00185F
:1049DC00001800300060807F807F00000000000025
:1049EC00000F000F000C000C000C000C000C000C55
:1049FC00000C000C000C000C000C000C000C000C4B
:104A0C00000F000F0000001800180018000C000C1C
:104A1C00000C000C00060006000600060003000354
:104A2C000003000000000000001E001E000600062F
:104A3C00000600060006000600060006000600063A
:104A4C000006000600060006001E001E0000000CFA
:104A5C00000C001E001200330033806180610000E6
:104A6C00000000000000000000000000000000003A
:104A7C00000000000000000000000000000000002A
:104A8C00000000000000000000000000000000001A
:104A9C00E0FF0000000000380018000C00000000CF
:104AAC0000000000000000000000000000000000FA
:104ABC0000000000000000000000000000000000EA
:104ACC000000001F803F80618001801F803F80615B
:104ADC008063807FC0380000000000000000006090
:104AEC00006000600060006E007F807380618061F8
:104AFC00806180618073007F006E00000000000008
:104B0C0000000000000000000000001E003F807349
:104B1C0080610060006080618073003F001E0000B7
:104B2C000000000000008001800180018001801DD8
:104B3C00803F807380618061806180618073803F81
:104B4C00801D0000000000000000000000000000BC
:104B5C000000001E003F00738061807F807F00603A
:104B6C008071003F001E0000000000000000C00724
:104B7C00C00F000C000C807F807F000C000C000C20
:104B8C00000C000C000C000C000C000000000000DD
:104B9C000000000000000000801D803F80738061D9
:104BAC008061806180618073803F801D80018063A3
:104BBC00007F003E00000060006000600060006F3D
:104BCC00807F8071806180618061806180618061A3
:104BDC0080610000000000000000000600060000DC
:104BEC000000003E003E000600060006000600061F
:104BFC00000600060006000000000000000600068B
:104C0C0000000000003E003E000600060006000604
:104C1C00000600060006000600060046007E003C6A
:104C2C00000000600060006000608061006300664E
:104C3C00006C007C0076006300638061C060000043
:104C4C00000000000000003E003E000600060006CA
:104C5C000006000600060006000600060006000618
:104C6C000006000000000000000000000000000032
:104C7C00000080DDC0FFC0CEC0CCC0CCC0CCC0CC4E
:104C8C00C0CCC0CCC0CC0000000000000000000074
:104C9C00000000000000006F807F807180618061E7
:104CAC008061806180618061806100000000000093
:104CBC0000000000000000000000001E003F807398
:104CCC0080618061806180618073003F001E000004
:104CDC00000000000000000000000000006E007FDB
:104CEC00807380618061806180618073007F006E61
:104CFC000060006000600060000000000000000028
:104D0C00801D803F807380618061806180618073D1
:104D1C00803F801D80018001800180010000000027
:104D2C000000000000000067803F003900300030B8
:104D3C000030003000300030003000000000000077
:104D4C0000000000000000000000001E803F806199
:104D5C000060007F803F80018061007F001E0000AA
:104D6C000000000000000000000800180018007F80
:104D7C00007F001800180018001800180018801F79
:104D8C00800F000000000000000000000000000088
:104D9C0000008061806180618061806180618061E0
:104DAC008063807F803D0000000000000000000058
:104DBC00000000000000C060803180318031001B99
:104DCC00001B001B000E000E00060000000000007F
:104DDC000000000000000000000080DD80DD80DDB0
:104DEC000055005500550077007700220022000086
:104DFC0000000000000000000000000000008061C6
:104E0C0000330033001E000C000C001E0033003376
:104E1C0080610000000000000000000000000000A5
:104E2C0080618061803100330033001B001B001B4C
:104E3C00000E000E000E001C007C00700000000034
:104E4C00000000000000C07FC07F8001000300064E
:104E5C00000C00180030C07FC07F00000000000074
:104E6C008003800700060006000600060006000E00
:104E7C00001C001C000E00060006000600060006C2
:104E8C0080078003000600060006000600060006E8
:104E9C0000060006000600060006000600060006D6
:104EAC0000060006000600060038003C000C000C52
:104EBC00000C000C000C000E00070007000E000C8C
:104ECC00000C000C000C000C003C00380000000032
:104EDC00000000000000000000008038807F0047C8
:104EEC0000000000000000000000000000000000B6
:104EFC00000000000000000001020304060708097E
:104F0C00000000000102030402030405060708095F
:104F1C000A0B0C0D0E0F1010010200000203040509
:104F2C00060708090A0B0C0D0E0F10100102232D99
:104F3C00302B2000686C4C00656667454647003096
:104F4C0031323334353637383941424344454600E3
:104F5C0030313233343536373839616263646566E3
:044F6C000000000041
:044F70003101000803
:044F74000D01000823
:104F7800070A0000343A00080B120000A04100089C
:104F88000024F400100000000100000000000000F0
:104F9800040100206C010020D40100200000000062
:104FA80000000000000000000000000000000000F9
:104FB80000000000000000000000000000000000E9
:104FC80000000000000000000000000000000000D9
:0C4FD80000000000000000001C00002091
:0400000508000E35AC
:00000001FF
